:100000000C942A000C9447000C9447000C94470071
:100010000C9447000C9447000C9447000C94470044
:100020000C9447000C9447000C9447000C94470034
:100030000C9474010C9447000C9447000C944700F6
:100040000C9447000C9447000C9447000C94470014
:100050000C94470011241FBECFE5D8E0DEBFCDBF12
:1000600010E0A0E6B0E0EAE3F3E002C005900D92F4
:10007000A038B107D9F720E0A0E8B0E001C01D9298
:10008000A438B207E1F70E9449000C949B010C943C
:1000900000000E945C000E946601C1E088E00E94AE
:1000A00033018823D9F3C0938000809180000E949F
:1000B0006E0180938300F2CFE0E6F0E080E041E063
:1000C00050E09191282F269526952695382F377048
:1000D0009130C9F120F0923009F47DC0BFC02130C9
:1000E00089F028F02230C9F0233011F1B7C09AB35B
:1000F000BA0102C0660F771F3A95E2F79B01292BE0
:100100002ABBACC097B3BA0102C0660F771F3A95FD
:10011000E2F79B01292B27BBA1C094B3BA0102C00F
:10012000660F771F3A95E2F79B01292B24BB96C0F7
:1001300091B3BA0102C0660F771F3A95E2F79B01AF
:10014000292B21BB8BC02130B1F028F0223019F1CE
:10015000233089F183C09AB3BA0102C0660F771FBA
:100160003A95E2F79B01362F309593239ABB9BB3C8
:10017000292B2BBB73C097B3BA0102C0660F771F40
:100180003A95E2F79B01362F3095932397BB98B3AE
:10019000292B28BB63C094B3BA0102C0660F771F36
:1001A0003A95E2F79B01362F3095932394BB95B394
:1001B000292B25BB53C091B3BA0102C0660F771F2C
:1001C0003A95E2F79B01362F3095932391BB92B37A
:1001D000292B22BB43C02130A9F028F0223009F19D
:1001E000233071F13BC09AB3BA0102C0660F771F8A
:1001F0003A95E2F79B01209592239ABB9BB3292362
:100200002BBB2CC097B3BA0102C0660F771F3A957B
:10021000E2F79B012095922397BB98B3292328BB33
:100220001DC094B3BA0102C0660F771F3A95E2F77A
:100230009B012095922394BB95B3292325BB0EC027
:1002400091B3BA0102C0660F771F3A95E2F79B019E
:100250002095922391BB92B3292322BB8F5F8032DA
:1002600009F02FCF0895282F2770869586958695BB
:10027000813079F028F08230A9F08330E1F024C099
:1002800089B390E002C0959587952A95E2F7817031
:10029000089586B390E002C0959587952A95E2F778
:1002A0008170089583B390E002C0959587952A9553
:1002B000E2F78170089580B390E002C0959587952C
:1002C0002A95E2F78170089580E008956D9A6C9AFE
:1002D0006B986A9A689A70986E9A0895C4988FB9C4
:1002E000779BFECF8FB108951F920F920FB60F929A
:1002F00011242F933F934F935F936F937F938F932B
:100300009F93AF93BF93EF93FF93E0918100F091A0
:1003100082000995FF91EF91BF91AF919F918F91CD
:100320007F916F915F914F913F912F910F900FBEF1
:0A0330000F901F901895F894FFCF6E
:10033A0000000000000000000200000000000200AF
:10034A0000000000000000000000010100000000A1
:00000001FF
