:100000000C942A000C9447000C9447000C94470071
:100010000C9447000C9447000C9447000C94470044
:100020000C9447000C9447000C9447000C94470034
:100030000C9447000C9447000C9447000C94470024
:100040000C9447000C9447000C9447000C94470014
:100050000C94470011241FBECFE5D8E0DEBFCDBF12
:1000600010E0A0E6B0E0E4E6F5E002C005900D92F5
:10007000AA3BB107D9F720E0AAEBB0E001C01D927E
:10008000AB3BB207E1F70E9494020C94B0020C94CF
:100090000000E9E9F0E080E041E050E09191282F94
:1000A000269526952695382F37709130C9F120F086
:1000B000923009F47DC0BFC0213089F028F0223091
:1000C000C9F0233011F1B7C09AB3BA0102C0660F6C
:1000D000771F3A95E2F79B01292B2ABBACC097B357
:1000E000BA0102C0660F771F3A95E2F79B01292BF0
:1000F00027BBA1C094B3BA0102C0660F771F3A951F
:10010000E2F79B01292B24BB96C091B3BA0102C030
:10011000660F771F3A95E2F79B01292B21BB8BC015
:100120002130B1F028F0223019F1233089F183C059
:100130009AB3BA0102C0660F771F3A95E2F79B01A6
:10014000362F309593239ABB9BB3292B2BBB73C0BF
:1001500097B3BA0102C0660F771F3A95E2F79B0189
:10016000362F3095932397BB98B3292B28BB63C0B8
:1001700094B3BA0102C0660F771F3A95E2F79B016C
:10018000362F3095932394BB95B3292B25BB53C0B1
:1001900091B3BA0102C0660F771F3A95E2F79B014F
:1001A000362F3095932391BB92B3292B22BB43C0AA
:1001B0002130A9F028F0223009F1233071F13BC041
:1001C0009AB3BA0102C0660F771F3A95E2F79B0116
:1001D000209592239ABB9BB329232BBB2CC097B3AA
:1001E000BA0102C0660F771F3A95E2F79B0120958E
:1001F000922397BB98B3292328BB1DC094B3BA019F
:1002000002C0660F771F3A95E2F79B012095922373
:1002100094BB95B3292325BB0EC091B3BA0102C08C
:10022000660F771F3A95E2F79B012095922391BBC9
:1002300092B3292322BB8F5F803209F02FCF08951C
:10024000982F9770869586958695813021F130F0AC
:100250008230F1F1833009F458C00895613069F4B7
:100260004BB321E030E0B90102C0660F771F9A95C9
:10027000E2F7CB01842B8BBB08954BB321E030E038
:10028000B90102C0660F771F9A95E2F7CB018095FE
:1002900084238BBB0895613069F448B321E030E0DA
:1002A000B90102C0660F771F9A95E2F7CB01842B44
:1002B00088BB089548B321E030E0B90102C0660F61
:1002C000771F9A95E2F7CB018095842388BB089528
:1002D000613069F445B321E030E0B90102C0660F36
:1002E000771F9A95E2F7CB01842B85BB089545B320
:1002F00021E030E0B90102C0660F771F9A95E2F75E
:10030000CB018095842385BB0895613069F442B3A5
:1003100021E030E0B90102C0660F771F9A95E2F73D
:10032000CB01842B82BB089542B321E030E0B901B8
:1003300002C0660F771F9A95E2F7CB018095842360
:1003400082BB0895282F27708695869586958130E3
:1003500079F028F08230A9F08330E1F024C089B32D
:1003600090E002C0959587952A95E2F781700895EF
:1003700086B390E002C0959587952A95E2F7817043
:10038000089583B390E002C0959587952A95E2F78A
:100390008170089580B390E002C0959587952A9565
:1003A000E2F78170089580E008950F931F93CF9333
:1003B000DF93C1E6D0E009E610E061E089910E9498
:1003C0002001C017D107C9F7DF91CF911F910F917D
:1003D0000895EF92FF920F931F93CF93DF9309E657
:1003E00010E0C0E0D0E0E82EF12CB7010C2E02C0E6
:1003F000759567950A94E2F76170F80181918F0114
:100400000E9420012196C830D10579F7DF91CF9164
:100410001F910F91FF90EF9008950E944900089559
:100420008F929F92AF92BF92CF92DF92EF92FF9204
:100430000F931F93CF93DF93CDB7DEB728970FB6F7
:10044000F894DEBF0FBECDBF4C010F2EFEE1AF2EE4
:10045000F02D6E0189E0C80ED11C8091BA00811187
:10046000FCCFF4018081898381818A8382818B839F
:1004700083818C8384818D8385818E8386818F8324
:10048000878188878091600081111DC027C00E94EC
:10049000D501F80181918F010E94E90160E0F70127
:1004A00081917F010E94200189EF90E00197F1F78F
:1004B00000C00000C016D10651F7B39480916000CF
:1004C000B81610F00BC0B12C8E010F5F1F4F0F2E0E
:1004D000F1E6EF2EF0E0FF2EF02DD9CFAA949FEF9A
:1004E000891A990AA110B9CF28960FB6F894DEBFE1
:1004F0000FBECDBFDF91CF911F910F91FF90EF9075
:10050000DF90CF90BF90AF909F908F900895109202
:10051000BA00089581E08093BA0008958091600048
:1005200082508093600008950E940D0281E790E060
:100530000E94100280E10E94A201813011F40E9409
:100540008A0281E10E94A201813011F40E94870297
:1005500082E10E94A201813049F70E948E02E6CF1B
:04056000F894FFCF3D
:100564000A08090A0B0C0D0E0F000102030405060C
:100574000700001824241800000000322A26000076
:1005840000007C1212127C000000001C021E021CDF
:1005940000007C1212127C00000000000000000029
:1005A4000000000000000000000202020000000041
:0A05B400000000010100000000003B
:00000001FF
