S00D0000536572766F2E7372656308
S11300000C9431000C944E000C944E000C944E0051
S11300100C944E000C944E000C944E000C944E0024
S11300200C944E000C944B020C9471010C944801F6
S11300300C944E000C944E000C944E000C944E0004
S11300400C944E000C944E000C944E000C944E00F4
S11300500C944E00A401B101BE01CB01D801E5010D
S1130060F20111241FBECFE5D8E0DEBFCDBF10E002
S1130070A0E6B0E0EAE5F5E002C005900D92A038F4
S1130080B107D9F720E0A0E8B0E001C01D92A6387E
S1130090B207E1F70E9461000C94AB020C940000DB
S11300A0282F30E0A8EEB3E00E949C0224EB30E05D
S11300B040E050E00E94740229513C4F39BD28BDF4
S11300C008950E94710022E042E062E083E00E9411
S11300D09A018FE19EE497BD86BD8AE50E94500097
S11300E0FCCFE0E6F0E080E041E050E09191282F81
S11300F0269526952695382F37709130C9F120F032
S1130100923009F47DC0BFC0213089F028F022303C
S1130110C9F0233011F1B7C09AB3BA0102C0660F17
S1130120771F3A95E2F79B01292B2ABBACC097B302
S1130130BA0102C0660F771F3A95E2F79B01292B9B
S113014027BBA1C094B3BA0102C0660F771F3A95CA
S1130150E2F79B01292B24BB96C091B3BA0102C0DC
S1130160660F771F3A95E2F79B01292B21BB8BC0C1
S11301702130B1F028F0223019F1233089F183C005
S11301809AB3BA0102C0660F771F3A95E2F79B0152
S1130190362F309593239ABB9BB3292B2BBB73C06B
S11301A097B3BA0102C0660F771F3A95E2F79B0135
S11301B0362F3095932397BB98B3292B28BB63C064
S11301C094B3BA0102C0660F771F3A95E2F79B0118
S11301D0362F3095932394BB95B3292B25BB53C05D
S11301E091B3BA0102C0660F771F3A95E2F79B01FB
S11301F0362F3095932391BB92B3292B22BB43C056
S11302002130A9F028F0223009F1233071F13BC0EC
S11302109AB3BA0102C0660F771F3A95E2F79B01C1
S1130220209592239ABB9BB329232BBB2CC097B355
S1130230BA0102C0660F771F3A95E2F79B01209539
S1130240922397BB98B3292328BB1DC094B3BA014A
S113025002C0660F771F3A95E2F79B01209592231F
S113026094BB95B3292325BB0EC091B3BA0102C038
S1130270660F771F3A95E2F79B012095922391BB75
S113028092B3292322BB8F5F803209F02FCF0895C8
S11302901F920F920FB60F9211242F933F934F93F7
S11302A05F936F937F938F939F93AF93BF93EF93DA
S11302B0FF93E0918200F0918300309709F0099553
S11302C0FF91EF91BF91AF919F918F917F916F912A
S11302D05F914F913F912F910F900FBE0F901F9000
S11302E018951F920F920FB60F9211242F933F93DC
S11302F04F935F936F937F938F939F93AF93BF932A
S1130300EF93FF93E0918000F0918100309709F022
S11303100995FF91EF91BF91AF919F918F917F913B
S11303206F915F914F913F912F910F900FBE0F905E
S11303301F90189590E08730910508F05FC0FC018C
S1130340E65DFF4F0C9496028FB58E7F8FBD8FB5FF
S11303508D7F8FBD8EB5877F8EBD8EB58F7E8EBD12
S11303604DC08FB58E7F8FBD8FB58D7F8FBD8EB500
S113037088608EBD8EB580618EBD40C08FB58E7F86
S11303808FBD8FB58D7F8FBD8EB588608EBD8EB5C8
S11303908F7E8EBD33C08FB58E7F8FBD8FB582604B
S11303A08FBD8EB588608EBD8EB580618EBD26C032
S11303B08FB581608FBD8FB582608FBD8EB588602B
S11303C08EBD8EB580618EBD19C08FB58E7F8FBDF9
S11303D08FB582608FBD8EB5877F8EBD8EB58061EF
S11303E08EBD0CC08FB581608FBD8FB582608FBD0F
S11303F08EB5877F8EBD8EB580618EBD413069F02C
S113040028F0423089F04330B1F01BC08FB58F7BA8
S11304108FBD8FB58F778FBD14C08FB580648FBDAE
S11304208FB58F778FBD0DC08FB58F7B8FBD8FB587
S113043080688FBD06C08FB580648FBD8FB580681E
S11304408FBD213069F028F0223089F02330B1F0DB
S11304501BC08FB58F7E8FBD8FB58F7D8FBD14C0B0
S11304608FB580618FBD8FB58F7D8FBD0DC08FB56A
S11304708F7E8FBD8FB580628FBD06C08FB58061C2
S11304808FBD8FB580628FBD8EB5887F8EBD8EB5D2
S1130490682B6EBD08951F920F920FB60F92112410
S11304A02F933F934F935F936F937F938F939F9378
S11304B0AF93BF93EF93FF93E0918400F091850095
S11304C0309709F00995FF91EF91BF91AF919F91FA
S11304D08F917F916F915F914F913F912F910F90E9
S11304E00FBE0F901F901895A1E21A2EAA1BBB1BDA
S11304F0FD010DC0AA1FBB1FEE1FFF1FA217B307EC
S1130500E407F50720F0A21BB30BE40BF50B661F01
S1130510771F881F991F1A9469F7609570958095C5
S113052090959B01AC01BD01CF010895EE0FFF1F13
S11305300590F491E02D0994A29FB001B39FC001EE
S1130540A39F700D811D1124911DB29F700D811DFB
S10D05501124911D0895F894FFCFC3
S113055A000000000000000000000000000000008D
S113056A000000000000000000000101000000007B
S9030000FC
