:100000000C9431000C944E000C944E000C944E0055
:100010000C944E000C944E000C944E000C944E0028
:100020000C944E000C944E000C944E000C944E0018
:100030000C944E000C944E000C944E000C944E0008
:100040000C944E000C944E000C944E000C944E00F8
:100050000C944E00DA01DE01E201E601EA01EE0154
:10006000F20111241FBECFE5D8E0DEBFCDBF10E006
:10007000A0E6B0E0E6EBF9E002C005900D92A63AEA
:10008000B107D9F720E0A6EAB0E001C01D92AA3A74
:10009000B207E1F70E9465010C94D9040C940000AA
:1000A000CF93C82F60E088E00E94200360E089E0E1
:1000B0000E94200340EF6C2F81E00E94F00261E07B
:1000C0008AE00E94200383EF91E00197F1F700C0DE
:1000D000000060E08AE00E94200383EF91E0019736
:1000E000F1F700C000006C2F6295607F40EF81E067
:1000F0000E94F00261E08AE00E94200383EF91E019
:100100000197F1F700C0000060E08AE00E94200340
:1001100083EF91E00197F1F700C00000CF910895BF
:1001200083ED90E30197F1F700C0000082E00E94A8
:10013000500089EF90E00197F1F700C0000088E2DD
:100140000E94500089EF90E00197F1F700C0000095
:100150008CE00E94500089EF90E00197F1F700C019
:10016000000081E00E94500087E893E10197F1F7D9
:1001700000C0000086E00E94500080E80E9450000D
:1001800008951F93CF93DF9390E0FC01EE0FFF1FC4
:10019000EE0FFF1FEE0FFF1FE80FF91FE05AFF4F92
:1001A0002081211142C0E62FF0E0E558FF4F108179
:1001B000612F6170EC01CC0FDD1FCC0FDD1FCC0F68
:1001C000DD1F8C0F9D1FEC01C05ADF4F89810E94FB
:1001D000200311FB662760F98A810E94200312FB2D
:1001E000662760F98B810E94200313FB662760F964
:1001F0008C810E94200314FB662760F98D810E9488
:10020000200315FB662760F98E810E94200316FBF0
:10021000662760F98F810E942003612F661F662781
:10022000661F88850E9420034CC0213009F049C018
:10023000E62FF0E0E558FF4F1081612F6170609567
:10024000EC01CC0FDD1FCC0FDD1FCC0FDD1F8C0FA1
:100250009D1FEC01C05ADF4F89810E94200311FBD2
:10026000662760F960958A810E94200312FB662749
:1002700060F960958B810E94200313FB662760F96B
:1002800060958C810E94200314FB662760F96095BD
:100290008D810E94200315FB662760F960958E8191
:1002A0000E94200316FB662760F960958F810E94EB
:1002B0002003612F661F6627661F609588850E9450
:1002C0002003DF91CF911F9108950E9419020E948F
:1002D000900062E085E00E949A0184E00E940102A1
:1002E00020E030E04AEC52E40E943E040E94A20367
:1002F00063337105ACF0C0E0D0E0BE0180E090E077
:100300000E94C1002FE38DE093E021508040904097
:10031000E1F700C000002196C630D10571F7DDCFAE
:1003200062337105D4F660E070E080E090E00E94F6
:10033000C100D3CFE82F379A613019F118F062303D
:1003400089F02EC08AE097EDA3E2B0E48093A60086
:100350009093A700A093A800B093A90087B1806CE8
:1003600087B91EC080E090E0A0EAB0E48093A600C8
:100370009093A700A093A800B093A9003E9A3F983D
:100380000FC080E090E0A0EAB0E48093A6009093D4
:10039000A700A093A800B093A90087B18F7387B975
:1003A0008E2F90E08730910500F5FC01E65DFF4F50
:1003B0000C94D30430983198329808953098319A3B
:1003C00032980895309A319A329808953098319839
:1003D000329A0895309A3198329A08953098319A25
:1003E000329A0895309A319A329A089597B1907E50
:1003F0008F71892B87B9369A84B125B190E0922B01
:1004000008950E94F601BC0180E090E00E94D803AC
:100410002091A6003091A7004091A8005091A9001A
:100420000E943E0420E030E040E85AE30E943E048F
:100430000895E5E8F0E080E041E050E09191282F58
:10044000269526952695382F37709130C9F120F0E2
:10045000923009F47DC0BFC0213089F028F02230ED
:10046000C9F0233011F1B7C09AB3BA0102C0660FC8
:10047000771F3A95E2F79B01292B2ABBACC097B3B3
:10048000BA0102C0660F771F3A95E2F79B01292B4C
:1004900027BBA1C094B3BA0102C0660F771F3A957B
:1004A000E2F79B01292B24BB96C091B3BA0102C08D
:1004B000660F771F3A95E2F79B01292B21BB8BC072
:1004C0002130B1F028F0223019F1233089F183C0B6
:1004D0009AB3BA0102C0660F771F3A95E2F79B0103
:1004E000362F309593239ABB9BB3292B2BBB73C01C
:1004F00097B3BA0102C0660F771F3A95E2F79B01E6
:10050000362F3095932397BB98B3292B28BB63C014
:1005100094B3BA0102C0660F771F3A95E2F79B01C8
:10052000362F3095932394BB95B3292B25BB53C00D
:1005300091B3BA0102C0660F771F3A95E2F79B01AB
:10054000362F3095932391BB92B3292B22BB43C006
:100550002130A9F028F0223009F1233071F13BC09D
:100560009AB3BA0102C0660F771F3A95E2F79B0172
:10057000209592239ABB9BB329232BBB2CC097B306
:10058000BA0102C0660F771F3A95E2F79B012095EA
:10059000922397BB98B3292328BB1DC094B3BA01FB
:1005A00002C0660F771F3A95E2F79B0120959223D0
:1005B00094BB95B3292325BB0EC091B3BA0102C0E9
:1005C000660F771F3A95E2F79B012095922391BB26
:1005D00092B3292322BB8F5F803209F02FCF089579
:1005E000813081F028F08230B9F08330F9F008953D
:1005F0008BB3942F909589238BBB8BB36423682B8B
:100600006BBB089588B3942F9095892388BB88B3DA
:100610006423682B68BB089585B3942F9095892334
:1006200085BB85B36423682B65BB089582B3942F83
:100630009095892382BB82B36423682B62BB0895A3
:10064000982F9770869586958695813021F130F0A8
:100650008230F1F1833009F458C00895613069F4B3
:100660004BB321E030E0B90102C0660F771F9A95C5
:10067000E2F7CB01842B8BBB08954BB321E030E034
:10068000B90102C0660F771F9A95E2F7CB018095FA
:1006900084238BBB0895613069F448B321E030E0D6
:1006A000B90102C0660F771F9A95E2F7CB01842B40
:1006B00088BB089548B321E030E0B90102C0660F5D
:1006C000771F9A95E2F7CB018095842388BB089524
:1006D000613069F445B321E030E0B90102C0660F32
:1006E000771F9A95E2F7CB01842B85BB089545B31C
:1006F00021E030E0B90102C0660F771F9A95E2F75A
:10070000CB018095842385BB0895613069F442B3A1
:1007100021E030E0B90102C0660F771F9A95E2F739
:10072000CB01842B82BB089542B321E030E0B901B4
:1007300002C0660F771F9A95E2F7CB01809584235C
:1007400082BB08950E94A9036894B1110C943804E7
:1007500008950E941D0488F09F5798F0B92F99279B
:10076000B751B0F0E1F0660F771F881F991F1AF09C
:10077000BA95C9F714C0B13091F00E943704B1E0C6
:1007800008950C943704672F782F8827B85F39F0C5
:10079000B93FCCF3869577956795B395D9F73EF435
:1007A00090958095709561957F4F8F4F9F4F0895DD
:1007B000E89409C097FB3EF49095809570956195FB
:1007C0007F4F8F4F9F4F9923A9F0F92F96E9BB27B1
:1007D0009395F695879577956795B795F111F8CF2D
:1007E000FAF4BB0F11F460FF1BC06F5F7F4F8F4F98
:1007F0009F4F16C0882311F096E911C0772321F08E
:100800009EE8872F762F05C0662371F096E8862F25
:1008100070E060E02AF09A95660F771F881FDAF77C
:10082000880F9695879597F9089557FD9058440F2E
:10083000551F59F05F3F71F04795880F97FB991F3F
:1008400061F09F3F79F087950895121613061406FC
:10085000551FF2CF4695F1DF08C016161706180689
:10086000991FF1CF86957105610508940895E89464
:10087000BB2766277727CB0197F908950E9451047B
:100880000C94C2040E94B40438F00E94BB0420F00F
:10089000952311F00C94AB040C94B10411240C9426
:1008A00038040E94150470F3959FC1F3950F50E032
:1008B000551F629FF001729FBB27F00DB11D639F12
:1008C000AA27F00DB11DAA1F649F6627B00DA11DB8
:1008D000661F829F2227B00DA11D621F739FB00D5E
:1008E000A11D621F839FA00D611D221F749F3327CE
:1008F000A00D611D231F849F600D211D822F762F67
:100900006A2F11249F5750409AF0F1F088234AF043
:10091000EE0FFF1FBB1F661F771F881F91505040AF
:10092000A9F79E3F510580F00C94AB040C94380459
:100930005F3FE4F3983ED4F3869577956795B79536
:10094000F795E7959F5FC1F7FE2B880F911D969550
:10095000879597F9089597F99F6780E870E060E0C0
:1009600008959FEF80EC089500240A941616170648
:1009700018060906089500240A9412161306140690
:1009800005060895092E0394000C11F4882352F0F3
:10099000BB0F40F4BF2B11F460FF04C06F5F7F4FAB
:1009A0008F4F9F4F0895EE0FFF1F0590F491E02D9C
:0609B0000994F894FFCF4A
:1009B6000010111213141516170000000000000095
:1009C60000000000000000000000003F065B4F66CC
:1009D6006D7D077F6F000000000200000000000030
:1009E6000000000000000000000000000000000100
:0609F600010000000000FA
:00000001FF
